:020000040800F2
:1000000000800120790A0008A1090008A70900085A
:10001000AD090008B3090008B90900080000000094
:10002000000000000000000000000000D185000872
:10003000BF0900080000000021880008CD09000861
:10004000C90A0008C90A0008C90A0008C90A000844
:10005000C90A0008C90A0008C90A0008C90A000834
:10006000C90A0008C90A0008C90A0008C90A000824
:10007000C90A0008C90A0008C90A0008C90A000814
:10008000C90A0008C90A0008C90A000800000000DF
:10009000000000000000000000000000C90A000885
:1000A000C90A0008C90A0008C90A0008C90A0008E4
:1000B000C90A0008C90A0008C90A0008C90A0008D4
:1000C000C90A0008C90A0008C90A0008C90A0008C4
:1000D000C90A0008C90A0008C90A0008000000008F
:1000E000C90A0008C90A0008C90A0008000000007F
:1000F000000000000000000000000000C90A000825
:1001000000000000C90A0008C90A0008C90A00085E
:1001100000000000000000000000000000000000DF
:10012000C90A0008C90A0008C90A0008C90A000863
:10013000C90A0008000000000000000000000000E4
:10014000000000000000000000000000C90A0008D4
:10015000C90A0008C90A0008C90A0008C90A000833
:10016000C90A0008C90A00080000000000000000D9
:10017000000000000000000000000000000000007F
:1001800000000000C90A0008000000000000000094
:04019000C90A000890
:1001A00010B5054C237833B9044B13B10448AFF3B1
:1001B00000800123237010BD7800002000000000A3
:1001C00034A6000808B5034B1BB103490348AFF33D
:1001D000008008BD000000007C00002034A600085C
:1001E000034613F8012B002AFBD1181A0138704777
:1001F00001F0FF01102A2BDB10F0070F08D010F8D8
:10020000013B013A8B422DD010F0070F42B3F6D1DB
:10021000F0B441EA012141EA014122F007047FF0F4
:1002200000070023F0E80256083C85EA010586EA4B
:10023000010685FA47F5A3FA87F586FA47F6A5FA87
:1002400087F68EB9EED1F0BC01F0FF0102F0070293
:1002500032B110F8013B013A83EA010313B1F8D13E
:100260000020704701387047002D06BF354603381F
:10027000073815F0010F07D1013015F4807F02BF58
:10028000013015F4C03F0130F0BC0138704700BFA9
:1002900053B94AB9002908BF00281CBF4FF0FF31ED
:1002A0004FF0FF3000F070B9ADF1080C6DE904CEED
:1002B00000F006F8DDF804E0DDE9022304B0704741
:1002C0002DE9F047089E0D4604460F46002B4AD103
:1002D0008A42944665D9B2FA82F343B102FA03FC2A
:1002E000C3F120029F4020FA02F217439C404FEADC
:1002F0001C4E1FFA8CF5B7FBFEF1220C0EFB11779A
:1003000042EA074201FB05F090420AD91CEB0202C7
:1003100001F1FF3780F01C81904240F219810239CF
:100320006244121AA4B2B2FBFEF00EFB102244EAA1
:10033000024400FB05F5A5420AD91CEB040400F1B8
:10034000FF3280F00781A54240F204816444023804
:1003500040EA0140641B00211EB1DC400023C6E9D5
:100360000043BDE8F0878B4208D9002E00F0ED80F5
:100370000021C6E900050846BDE8F087B3FA83F11D
:10038000002949D1AB4202D3824200F2F880841A9C
:1003900065EB030201201746002EE2D0C6E90047B4
:1003A000DFE702B9FFDEB2FA82F3002B40F0908063
:1003B0008A1A4FEA1C471FFA8CFE0121B2FBF7F59F
:1003C00007FB1520220C42EA00420EFB05F090428A
:1003D00008D91CEB020205F1FF3802D2904200F26C
:1003E000CB804546121AA4B2B2FBF7F007FB1022ED
:1003F00044EA02440EFB00FEA64508D91CEB0404A7
:1004000000F1FF3202D2A64500F2BB801046A4EBF9
:100410000E0440EA05409FE7C1F120078B4022FA15
:1004200007FC4CEA030C05FA01F420FA07F3FD403F
:100430004FEA1C492343B5FBF9F81FFA8CFE09FB70
:1004400018551C0C44EA054408FB0EF5A54202FAB7
:1004500001F200FA01F00BD91CEB040408F1FF3A99
:1004600080F08880A54240F28580A8F102086444AB
:10047000641B9DB2B4FBF9F309FB134445EA044441
:1004800003FB0EFEA64508D91CEB040403F1FF355F
:100490006CD2A6456AD9023B644443EA0843A3FBF5
:1004A0000295A4EB0E04AC42C846AE4656D353D0D8
:1004B00056B1B0EB080264EB0E0404FA07F7CA4029
:1004C000CC401743C6E9007418460021BDE8F08708
:1004D000C3F1200102FA03FC20FA01F225FA01F12E
:1004E0009D402A434FEA1C471FFA8CFEB1FBF7F0F0
:1004F00007FB1015110C41EA054100FB0EF58D427A
:1005000004FA03F408D91CEB010100F1FF382FD2E3
:100510008D422DD902386144491B92B2B1FBF7F5E7
:1005200007FB151142EA014205FB0EF1914208D981
:100530001CEB020205F1FF3816D2914214D9023D9C
:100540006244521A45EA004138E73146304608E72E
:100550003946E6E61046FBE64845A9D2B9EB020863
:1005600065EB0C0E013BA3E74546EAE72B4694E713
:100570004046D1E7D0467BE7023D624432E7084679
:100580000AE76444023842E7704700BF80B500AF15
:1005900008F01AFE00F0D6FF00F022F800F034FF59
:1005A0000346002B02D00B4808F0BAFF00F050FDC4
:1005B0000346002B02D0084808F0B2FF00F09CF878
:1005C00000F078F805F09AF905F096FC034808F079
:1005D000A7FFFEE74CA6000864A600087CA600085A
:1005E00080B594B000AF07F12003302200211846F7
:1005F00009F0AAF807F10C0300221A605A609A6009
:10060000DA601A610023BB60284B1B6C274A43F059
:1006100080531364254B1B6C03F08053BB60BB6895
:1006200000237B60224B1B6823F44043204A43F4A1
:10063000004313601E4B1B6803F440437B607B68E0
:1006400002233B620123FB6210233B630223BB6353
:100650000023FB6308233B6440237B640223BB64C9
:100660000723FB6407F12003184602F0F3FB03465F
:10067000002B01D000F06AF80F23FB6002233B61DE
:1006800000237B614FF48053BB610023FB6107F1C2
:100690000C030221184602F055FE0346002B01D040
:1006A00000F054F800BF5037BD4680BD003802400E
:1006B0000070004080B400AF0D4B0E4A1A600C4B26
:1006C00000225A600A4B00229A60094B0022DA602D
:1006D000074B4FF400621A61054B00225A61044B2C
:1006E00000229A6100BFBD465DF8047B704700BFE1
:1006F000D8000020002C014080B500AF114B124AF9
:100700001A60104B4FF4E1325A600E4B00229A608F
:100710000C4B0022DA600B4B00221A61094B0C22B1
:100720005A61084B00229A61064B0022DA610548A3
:1007300004F0C1F80346002B01D000F007F800BF19
:1007400080BD00BF940000200044004080B400AF92
:1007500072B600BFFEE7000080B582B000AF002394
:100760007B60124B5B6C114A43F4804353640F4B24
:100770005B6C03F480437B607B6800233B600B4B26
:100780001B6C0A4A43F080531364084B1B6C03F044
:1007900080533B603B6800220F216FF0010001F0A5
:1007A00024F800BF0837BD4680BD00BF00380240B6
:1007B00080B58AB000AF786007F1140300221A6098
:1007C0005A609A60DA601A617B681B68194A934222
:1007D0002BD100233B61184B1B6B174A43F00203DC
:1007E0001363154B1B6B03F002033B613B69C02392
:1007F0007B611223BB610023FB6103233B62042363
:100800007B6207F1140319460C4801F0A9F8002394
:10081000FB60094B1B6C084A43F400131364064B3E
:100820001B6C03F40013FB60FB6800BF2837BD4658
:1008300080BD00BF00540040003802400004024068
:1008400080B58AB000AF786007F1140300221A6007
:100850005A609A60DA601A617B681B68284A934282
:100860004AD100233B61274B5B6C264A43F400636B
:100870005364244B5B6C03F400633B613B690023CE
:10088000FB60204B1B6B1F4A43F0040313631D4B9B
:100890001B6B03F00403FB60FB680023BB60194B78
:1008A0001B6B184A43F008031363164B1B6B03F0D2
:1008B0000803BB60BB684FF4F8537B610223BB6144
:1008C0000023FB6103233B620C237B6207F11403CB
:1008D00019460D4801F044F804237B610223BB61F3
:1008E0000023FB6103233B620C237B6207F11403AB
:1008F0001946064801F034F800BF2837BD4680BDD0
:10090000002C01400038024000080240000C024068
:1009100080B58AB000AF786007F1140300221A6036
:100920005A609A60DA601A617B681B68194A9342C0
:100930002BD100233B61184B1B6C174A43F4003347
:100940001364154B1B6C03F400333B613B690023BC
:10095000FB60114B1B6B104A43F0010313630E4BFA
:100960001B6B03F00103FB60FB680C237B6102231C
:10097000BB610023FB6100233B6207237B6207F11D
:1009800014031946054800F0EBFF00BF2837BD46A9
:1009900080BD00BF0044004000380240000002401B
:1009A00080B400AFFEE780B400AFFEE780B400AFD4
:1009B000FEE780B400AFFEE780B400AFFEE780B48E
:1009C00000AF00BFBD465DF8047B704780B500AF47
:1009D00000F00AFE07F068F90346012B01D007F08A
:1009E00053FF00BF80BD000080B586B000AF7860C7
:1009F000144A154BD31A7B617B693B61134B1B680F
:100A0000002B02D1114B124A1A60104B1A687B68F6
:100A100013443A699A4207D208F0E4FE03460C22D6
:100A20001A604FF0FF3309E0084B1B68FB60074B6F
:100A30001A687B681344054A1360FB681846183728
:100A4000BD4680BD00800120000400005C01002044
:100A5000984D002080B400AF064BD3F88830054A8B
:100A600043F47003C2F8883000BFBD465DF8047BD4
:100A7000704700BF00ED00E0DFF834D00D480E49AC
:100A80000E4A002302E0D458C4500433C4188C42E8
:100A9000F9D30B4A0B4C002301E013600432A2424D
:100AA000FBD3FFF7D7FF08F0A3FEFFF76FFD7047FA
:100AB000008001200000002078000020ECA9000840
:100AC00078000020944D0020FEE7000080B582B041
:100AD00000AF0F4B7B603B1D04221946362000F00F
:100AE000ABFB0346002B01D100230DE0094B3B601B
:100AF0003B4604221946362000F09EFB0346002B9D
:100B000001D1002300E0012318460837BD4680BD0F
:100B1000A2017632A202465180B5AAB000AF00F021
:100B20000BF90346002B04D17D4808F0F9FC0023A3
:100B3000F2E07C4808F0F4FCFFF7C8FF0346002B06
:100B400004D1794808F0ECFC0023E5E0774808F090
:100B5000E7FC07F1440364220021184608F0F4FD85
:100B6000402387F84430724B1B7887F846300823BF
:100B700087F84930FF2387F84A30FF2387F84B3046
:100B8000FF2387F84C30FF2387F84D30FF2387F889
:100B90004E30FF2387F84F30FF2387F85030FF2374
:100BA00087F85130FF2387F85230FF2387F85330FE
:100BB000FF2387F85430FF2387F85530FF2387F849
:100BC0005630FF2387F85730FF2387F85830FF232C
:100BD00087F85930FF2387F85A30FF2387F85B30B6
:100BE000FF2387F85C30FF2387F85D30FF2387F809
:100BF0005E30FF2387F85F30FF2387F86030FF23E4
:100C000087F86130FF2387F86230FF2387F863306D
:100C1000FF2387F86430FF2387F86530FF2387F8C8
:100C20006630FF2387F86730FF2387F86830FF239B
:100C300087F86930FF2387F86A30FF2387F86B3025
:100C4000FF2387F86C30FF2387F86D30FF2387F888
:100C50006E30FF2387F86F30FF2387F87030FF2353
:100C600087F87130FF2387F87230FF2387F87330DD
:100C7000FF2387F87430FF2387F87530FF2387F848
:100C80007630FF2387F87730FF2387F87830FF230B
:100C900087F87930FF2387F87A30FF2387F87B3095
:100CA000FF2387F87C30FF2387F87D30FF2387F808
:100CB0007E30FF2387F87F30FF2387F88030FF23C3
:100CC00087F88130FF2387F88230FF2387F883304D
:100CD000FF2387F88430FF2387F88530052387F8C2
:100CE0008630692387F8873007F144034422194688
:100CF000362000F0A1FA3B4642220021184608F0B7
:100D000023FD3A4642234FF48041362000F038FA62
:100D1000084808F005FC01231846A837BD4680BDE9
:100D200090A60008B8A60008E4A600080CA70008D2
:100D3000040000202CA7000880B500AF002000F0C0
:100D400041F8002000F032F9002000F049F90020BD
:100D500000F01AF94FF47A7005F09BF9012000F0C9
:100D600013F9002000F022F9012000F039F94FF4C6
:100D7000FA6005F08EF9012000F024F84FF47A7043
:100D800005F087F900F0AEFA362000F081FA03464C
:100D9000DBB2184680BD000080B500AF084B1B7861
:100DA000002B01D0012308E000F08CF803461A461E
:100DB000034B1A7000F076F80123184680BD00BF7F
:100DC0006001002080B584B000AF0346FB71FB7961
:100DD000002B02D0012B0DD01FE02A4808F0A0FB09
:100DE000294B01225A60294B01225A60284B0022CC
:100DF0001A7017E0274808F093FB244B04221A616D
:100E0000214B04221A61204B12225A601F4B1222DE
:100E10005A601F4B01221A7004E01F4808F080FB43
:100E200000232AE00023FB601C4B1B6B1B4A43F092
:100E300002031363194B1B6B03F00203FB60FB6897
:100E4000114B4FF400721A60104B4FF480721A600D
:100E50000D4B01229A600D4B01229A600A4B03222E
:100E6000DA600A4B0322DA6008490D4800F078FD89
:100E700005490B4800F074FD012318461037BD46A4
:100E800080BD00BF3CA70008A00100208C0100200D
:100E90000500002054A700086CA700080038024095
:100EA0000004024080B400AF00BF054B1B78002B4C
:100EB000FBD100BF00BFBD465DF8047B704700BF9B
:100EC0006001002080B582B000AF00237B60284B1A
:100ED0001B6B274A43F004031363254B1B6B03F082
:100EE00004037B607B68234B4FF400521A60214B54
:100EF00000225A601F4B02229A601E4B0322DA60C6
:100F00001C491D4800F02CFD00233B60184B1B6B57
:100F1000174A43F001031363154B1B6B03F00103E6
:100F20003B603B68154B20221A60144B01225A602B
:100F3000124B00229A60114B0322DA600F491048CD
:100F400000F00EFD0F4B4FF480521A600D4B012242
:100F50005A600C4B02229A600A4B0322DA6009495C
:100F6000074800F0FDFC012318460837BD4680BD48
:100F7000003802406401002000080240780100208F
:100F800000000240B401002080B582B000AF0346EB
:100F9000FB71FB791A464FF48051034800F07CFE48
:100FA00000BF0837BD4680BD0000024080B582B05A
:100FB00000AF0346FB71084B1B78002B07D1FB7970
:100FC0001A464FF48071054800F066FE00E000BF4D
:100FD0000837BD4680BD00BF050000200004024068
:100FE00080B582B000AF0346FB71084B1B78002B25
:100FF00007D1FB791A464FF40071054800F04CFE0A
:1010000000E000BF0837BD4680BD00BF05000020DE
:101010000004024080B582B000AF0346FB71FB794B
:101020001A462021034800F037FE00BF0837BD46AE
:1010300080BD00BF0000024080B500AF4FF40051FA
:10104000024800F011FE0346184680BD0008024029
:1010500080B500AF144B154A1A60134B144A5A60FE
:10106000114B00229A60104B0022DA600E4B4FF4B5
:1010700080421A610C4B00225A610B4B00229A618C
:10108000094B0022DA61084B00221A62064800F080
:101090001DFE0346002B01D0002303E00120FFF7D3
:1010A00091FE0123184680BDC80100200054004075
:1010B000A08601002DE9F0438DB002AFF860B96061
:1010C0007A606B461E467A6813465B0013442333EE
:1010D000FB61F9694B1EBB610A46002390469946A5
:1010E0004FF000024FF000034FEAC90343EA587380
:1010F0004FEAC8020A46002314461D464FF000027C
:101100004FF00003EB0043EA5473E2000B46073351
:10111000DB08DB00ADEB030D02AB00337B61F9694B
:101120007B680093FB68144A786908F001FA03466B
:101130007B6200233B6212E07A697B6AD0183B6ACB
:10114000BA6813441B780D4A042108F0F1F90346EC
:101150001A467B6A13447B623B6A01333B623A6AFC
:101160007B689A42E8DB786908F0DAF9B54600BF97
:101170002C37BD46BDE8F0838CA7000898A700086F
:1011800080B588B002AFBA601A460346FB810B46B1
:10119000BB811346FB80BB891B0A9BB2DBB23B754C
:1011A000BB89DBB27B75FB895B0099B207F1140246
:1011B0004FF0FF33009302231A4800F0CBFE0346A2
:1011C000002B08D03B7D19467B7D1A46164808F057
:1011D00039F9002322E007F11403022219461348CB
:1011E000FFF768FFFB895B0099B2FB884FF0FF3285
:1011F0000092BA680B4800F0ABFF0346FB75FB7D1D
:10120000002B04D00A4808F08BF9002306E0FB8885
:101210001A46B9680748FFF74DFF012318461837EB
:10122000BD4680BDC8010020A0A70008CCA70008CB
:10123000D8A70008E8A7000880B584B002AF03462D
:101240003960FB801346BB80FB885B0099B2BB888A
:101250004FF0FF3200923A680A4800F07BFE0346E6
:10126000002B04D0084808F05BF9002306E0BB8897
:101270001A4639680548FFF71DFF0123184608374D
:10128000BD4680BDC8010020F4A70008CCA7000817
:1012900080B584B000AF0346FB800023FB73FB885E
:1012A0005B0099B241F288331E220B4801F076F9B7
:1012B0000346FB73FB7B002B05D1FB8819460748CF
:1012C00008F0C0F802E0064808F02AF901231846A1
:1012D0001037BD4680BD00BFC801002010A800081F
:1012E00024A8000880B582B000AF0023FB701D4821
:1012F00008F016F900237B602AE07B689BB25B0054
:1013000099B241F288331E22174801F047F903468B
:10131000FB70FB78002B04D17968144808F092F830
:1013200002E0134808F08EF87968124B83FB012322
:101330005A10CB17D21A13465B0013449B00CA1AEB
:10134000002A02D10A2008F08FF87B6801337B6005
:101350007B687F2BD1DD084808F0E2F800BF083732
:10136000BD4680BD3CA80008C801002058A8000860
:1013700060A80008ABAAAA2A68A8000880B582B0B5
:1013800000AF7860044B1B78012B02D100F006F807
:1013900000E000BFF6E700BF1C02002080B500AFF0
:1013A0000A4B1B78002B06D1084B01221A70002033
:1013B000FFF730FE05E0054B00221A700120FFF711
:1013C00029FE322004F065FE00BF80BD1D02002012
:1013D00080B582B000AF0346FB7100F009F8034A04
:1013E000FB79137000BF0837BD4680BD1C0200208A
:1013F00080B500AF034B00221A700020FFF70AFEF1
:1014000000BF80BD1D02002080B582B000AF04F097
:101410002DFD0023FB71204A0021204804F0A7FD88
:1014200003461F4A13601E4B1B68002B05D11D4845
:1014300008F076F8FB790133FB711B4A00211B4849
:1014400004F095FD03461A4A1360194B1B68002BE4
:1014500005D1184808F064F8FB790133FB71164A8E
:101460000021164804F083FD0346154A1360144B0F
:101470001B68002B05D1134808F052F8FB790133A3
:10148000FB71FB79002B0CBF01230023DBB2184654
:101490000837BD4680BD00BF0CA90008C91400086C
:1014A000200200209CA8000830A90008F5140008BC
:1014B00024020020B4A8000854A90008DD14000884
:1014C00028020020C8A8000880B582B000AF78606C
:1014D000FFF762FC00BF0837BD4680BD80B582B013
:1014E00000AF78600020FFF749FF00BF0837BD4616
:1014F00080BD000080B582B000AF78600120FFF7AA
:1015000043FD4FF47A7004F0C4FD642004F0C1FD83
:10151000FFF792FD0346002BF7D1094B1B78002BF8
:10152000F3D1074B01221A700120FFF751FFFFF79B
:10153000F3FA034B00221A700020FFF749FFE4E79B
:101540002C02002080B500AF0E4B1B680D4A43F4FF
:10155000007313600B4B1B680A4A43F480631360EB
:10156000084B1B68074A43F480731360032000F0A4
:1015700031F90F2000F008F8FFF7EEF800231846C5
:1015800080BD00BF003C024080B582B000AF7860F3
:10159000124B1A68124B1B7819464FF47A73B3FB3F
:1015A000F1F3B2FBF3F3184600F03BF90346002BCE
:1015B00001D001230EE07B680F2B0AD80022796846
:1015C0004FF0FF3000F011F9064A7B6813600023EA
:1015D00000E0012318460837BD4680BD000000200A
:1015E0000C0000200800002080B400AF064B1B78E0
:1015F0001A46064B1B681344044A136000BFBD46DD
:101600005DF8047B704700BF0C0000203002002012
:1016100080B400AF034B1B681846BD465DF8047BE1
:10162000704700BF3002002080B584B000AF786002
:10163000FFF7EEFFB8607B68FB60FB68B3F1FF3F2C
:1016400005D00A4B1B781A46FB681344FB6000BFA9
:10165000FFF7DEFF0246BB68D31AFA689A42F7D852
:1016600000BF00BF1037BD4680BD00BF0C0000208A
:1016700080B485B000AF78607B6803F00703FB603F
:101680000C4BDB68BB60BA684FF6FF031340BB60CE
:10169000FB681A02BB68134343F0BF6343F4003393
:1016A000BB60044ABB68D36000BF1437BD465DF819
:1016B000047B704700ED00E080B400AF044BDB68B2
:1016C0001B0A03F007031846BD465DF8047B70470C
:1016D00000ED00E080B483B000AF03463960FB71D9
:1016E00097F90730002B0ADB3B68DAB20C4997F90F
:1016F00007301201D2B20B4483F800230AE03B68A2
:10170000DAB20849FB7903F00F03043B1201D2B2AD
:101710000B441A7600BF0C37BD465DF8047B70475A
:1017200000E100E000ED00E080B489B000AFF860B7
:10173000B9607A60FB6803F00703FB61FB69C3F1E2
:101740000703042B28BF0423BB61FB690433062B6A
:1017500002D9FB69033B00E000237B614FF0FF32BD
:10176000BB6902FA03F3DA43BB681A407B699A400B
:101770004FF0FF317B6901FA03F3D9437B680B40DB
:10178000134318462437BD465DF8047B70470000BC
:1017900080B582B000AF78607B68013BB3F1807F99
:1017A00001D301230FE00A4A7B68013B53600F21FC
:1017B0004FF0FF30FFF78EFF054B00229A60044B7D
:1017C00007221A60002318460837BD4680BD00BFB7
:1017D00010E000E080B582B000AF78607868FFF775
:1017E00047FF00BF0837BD4680BD80B586B000AF5B
:1017F0000346B9607A60FB7300237B61FFF75CFFEF
:1018000078617A68B9687869FFF78EFF024697F9C0
:101810000F3011461846FFF75DFF00BF1837BD4671
:1018200080BD80B582B000AF78607868FFF7B0FF08
:10183000034618460837BD4680BD80B586B000AF68
:10184000F860B9607A603B600023FB75FB689B6DB4
:101850003B61FB6893F83430012B01D1022340E057
:10186000FB68012283F83420FB6893F83530DBB243
:10187000012B2FD1FB68022283F83520FB68002260
:101880005A653B687A68B968F86800F03AF8FB680E
:10189000DB6D3F229A403B699A60FB681B681A68BF
:1018A000FB681B6842F016021A60FB681B6C002B79
:1018B00007D0FB681B681A68FB681B6842F00802C7
:1018C0001A60FB681B681A68FB681B6842F001021B
:1018D0001A6005E0FB68002283F834200223FB75C0
:1018E000FB7D18461837BD4680BD80B483B000AF7D
:1018F00078607B685B6D18460C37BD465DF8047BED
:10190000704780B485B000AFF860B9607A603B6022
:10191000FB681B681A68FB681B6822F480221A6047
:10192000FB681B683A685A60FB689B68402B08D1CB
:10193000FB681B687A689A60FB681B68BA68DA60A3
:1019400007E0FB681B68BA689A60FB681B687A68E6
:10195000DA6000BF1437BD465DF8047B70470000B5
:1019600080B489B000AF7860396000237B610023C8
:101970003B610023BB610023FB6159E10122FB694C
:1019800002FA03F37B613B681B687A6913403B6191
:101990003A697B699A4240F048813B685B6803F092
:1019A0000303012B05D03B685B6803F00303022BA4
:1019B00030D17B689B68BB61FB695B00032202FA44
:1019C00003F3DB43BA691340BB613B68DA68FB6928
:1019D0005B0002FA03F3BA691343BB617B68BA691F
:1019E0009A607B685B68BB610122FB6902FA03F3C2
:1019F000DB43BA691340BB613B685B681B0903F0BA
:101A00000102FB6902FA03F3BA691343BB617B6805
:101A1000BA695A603B685B6803F00303032B17D075
:101A20007B68DB68BB61FB695B00032202FA03F39E
:101A3000DB43BA691340BB613B689A68FB695B0092
:101A400002FA03F3BA691343BB617B68BA69DA60CF
:101A50003B685B6803F00303022B23D1FB69DA08C0
:101A60007B68083253F82230BB61FB6903F007033F
:101A70009B000F2202FA03F3DB43BA691340BB61F8
:101A80003B681A69FB6903F007039B0002FA03F342
:101A9000BA691343BB61FB69DA087B680832B9692C
:101AA00043F822107B681B68BB61FB695B00032263
:101AB00002FA03F3DB43BA691340BB613B685B681E
:101AC00003F00302FB695B0002FA03F3BA691343F4
:101AD000BB617B68BA691A603B685B6803F440339A
:101AE000002B00F0A2800023FB60574B5B6C564A32
:101AF00043F480435364544B5B6C03F48043FB60BA
:101B0000FB68524AFB699B08023352F82330BB61E1
:101B1000FB6903F003039B000F2202FA03F3DB438C
:101B2000BA691340BB617B68494A934219D07B680C
:101B3000484A934213D07B68474A93420DD07B6852
:101B4000464A934207D07B68454A934201D1042319
:101B500008E0072306E0032304E0022302E0012358
:101B600000E00023FA6902F0030292009340BA6990
:101B70001343BB613549FB699B080233BA6941F8DD
:101B80002320384B9B68BB613B69DB43BA69134038
:101B9000BB613B685B6803F48013002B03D0BA6918
:101BA0003B691343BB612F4ABB6993602D4BDB68D4
:101BB000BB613B69DB43BA691340BB613B685B684F
:101BC00003F40013002B03D0BA693B691343BB61D4
:101BD000244ABB69D360234B5B68BB613B69DB4331
:101BE000BA691340BB613B685B6803F40033002BA8
:101BF00003D0BA693B691343BB611A4ABB6953609E
:101C0000184B1B68BB613B69DB43BA691340BB617E
:101C10003B685B6803F48033002B03D0BA693B69EF
:101C20001343BB610F4ABB691360FB690133FB615E
:101C3000FB690F2B7FF6A2AE00BF00BF2437BD4665
:101C40005DF8047B704700BF003802400038014057
:101C5000000002400004024000080240000C024064
:101C600000100240003C014080B485B000AF7860B5
:101C70000B467B807B681A697B881340002B02D05F
:101C80000123FB7301E00023FB73FB7B1846143731
:101C9000BD465DF8047B704780B483B000AF7860C8
:101CA0000B467B8013467B707B78002B03D07A88B1
:101CB0007B689A6103E07B881A047B689A6100BFA5
:101CC0000C37BD465DF8047B7047000080B584B0DA
:101CD00000AF78607B68002B01D101232BE17B688A
:101CE00093F83D30DBB2002B06D17B68002283F8ED
:101CF0003C207868FEF75CFD7B68242283F83D2059
:101D00007B681B681A687B681B6822F001021A60F6
:101D10007B681B681A687B681B6842F400421A6083
:101D20007B681B681A687B681B6822F400421A6093
:101D300001F000FDF8607B685B68814A934207D838
:101D4000FB68804A934294BF01230023DBB206E084
:101D5000FB687D4A934294BF01230023DBB2002B32
:101D600001D00123E7E0FB68784AA2FB03239B0C28
:101D7000BB607B681B685B6823F03F017B681B6866
:101D8000BA680A435A607B681B681B6A23F03F01EC
:101D90007B685B686A4A934202D8BB68013309E0FA
:101DA000BB684FF4967202FB03F3694AA2FB03235C
:101DB0009B0901337A6812680B4313627B681B68C6
:101DC000DB6923F44F4222F0FF027B685B685C49C9
:101DD0008B4219D8FB68591E7B685B685B00B1FBBE
:101DE000F3F3591C40F6FC730B40002B0AD0FB6840
:101DF000591E7B685B685B00B1FBF3F30133C3F3EF
:101E00000B0351E004234FE07B689B68002B11D14A
:101E1000FB68581E7B6859680B465B000B44B0FB9F
:101E2000F3F30133C3F30B03002B0CBF0123002397
:101E3000DBB212E0FB68581E7B6859680B469B00BA
:101E40000B4499000B44B0FBF3F30133C3F30B03D2
:101E5000002B0CBF01230023DBB2002B01D0012398
:101E600022E07B689B68002B0ED1FB68581E7B68C4
:101E700059680B465B000B44B0FBF3F30133C3F32B
:101E80000B0343F400430FE0FB68581E7B6859685E
:101E90000B469B000B4499000B44B0FBF3F301335A
:101EA000C3F30B0343F44043796809681343CB61E0
:101EB0007B681B681B6823F0C0017B68DA697B685C
:101EC0001B6A1A437B681B680A431A607B681B689D
:101ED0009B6823F4034323F0FF037A6811697A684F
:101EE000D26811437A6812680B4393607B681B6861
:101EF000DB6823F0FF017B685A697B689B691A43A2
:101F00007B681B680A43DA607B681B681A687B6819
:101F10001B6842F001021A607B6800221A647B6829
:101F2000202283F83D207B6800221A637B68002210
:101F300083F83E20002318461037BD4680BD00BF01
:101F4000A08601007F841E00FF083D0083DE1B4346
:101F5000D34D621080B588B002AFF8607A601A463F
:101F60000B467B8113463B81FFF752FB7861FB6890
:101F700093F83D30DBB2202B40F0E0807B6900938A
:101F8000192301227049F86800F086FD0346002BF2
:101F900001D00223D3E0FB6893F83C30012B01D140
:101FA0000223CCE0FB68012283F83C20FB681B681D
:101FB0001B6803F00103012B07D0FB681B681A683C
:101FC000FB681B6842F001021A60FB681B681A6814
:101FD000FB681B6822F400621A60FB68212283F808
:101FE0003D20FB68102283F83E20FB6800221A6423
:101FF000FB687A685A62FB683A895A85FB685B8D90
:102000009AB2FB681A85FB68504ADA6279897B6963
:102010003A6AF86800F0F0FB0346002B01D0012378
:102020008DE000233B61FB681B685B693B61FB68DB
:102030001B689B693B613B6966E07A69396AF868AD
:1020400000F000FE0346002B0DD0FB681B6C042B38
:1020500007D1FB681B681A68FB681B6842F40072B2
:102060001A6001236BE0FB685B6A1A78FB681B68E7
:102070001A61FB685B6A5A1CFB685A62FB685B8DDD
:102080009BB2013B9AB2FB685A85FB681B8D013BF2
:102090009AB2FB681A85FB681B685B6903F004034E
:1020A000042B1BD1FB681B8D002B17D0FB685B6AD0
:1020B0001A78FB681B681A61FB685B6A5A1CFB682C
:1020C0005A62FB685B8D9BB2013B9AB2FB685A85F2
:1020D000FB681B8D013B9AB2FB681A857A69396AE5
:1020E000F86800F0F0FD0346002B0DD0FB681B6C78
:1020F000042B07D1FB681B681A68FB681B6842F455
:1021000000721A6001231AE0FB681B8D002B94D12A
:10211000FB681B681A68FB681B6842F400721A604F
:10212000FB68202283F83D20FB68002283F83E20D4
:10213000FB68002283F83C20002300E002231846BD
:102140001837BD4680BD00BF020010000000FFFF31
:1021500080B58CB002AFF8607A601A460B467B817E
:1021600013463B81FFF754FA7862FB6893F83D30E1
:10217000DBB2202B40F00B827B6A009319230122F3
:102180007C49F86800F088FC0346002B01D002234C
:10219000FEE1FB6893F83C30012B01D10223F7E10B
:1021A000FB68012283F83C20FB681B681B6803F076
:1021B0000103012B07D0FB681B681A68FB681B68CA
:1021C00042F001021A60FB681B681A68FB681B6812
:1021D00022F400621A60FB68222283F83D20FB682B
:1021E000102283F83E20FB6800221A64FB687A689C
:1021F0005A62FB683A895A85FB685B8D9AB2FB6824
:102200001A85FB685C4ADA6279897B6A3A6BF868FE
:1022100000F074FB0346002B01D00123B8E1FB68FA
:102220001B8D002B13D100233B62FB681B685B698D
:102230003B62FB681B689B693B623B6AFB681B68EF
:102240001A68FB681B6842F400721A608CE1FB6834
:102250001B8D012B1BD1FB681B681A68FB681B6870
:1022600022F480621A600023FB61FB681B685B69D3
:10227000FB61FB681B689B69FB61FB69FB681B6872
:102280001A68FB681B6842F400721A606CE1FB6814
:102290001B8D022B1BD1FB681B681A68FB681B682F
:1022A00022F480621A60FB681B681A68FB681B686E
:1022B00042F400621A600023BB61FB681B685B6923
:1022C000BB61FB681B689B69BB61BB694CE1FB6838
:1022D0001B681A68FB681B6842F480621A6000235E
:1022E0007B61FB681B685B697B61FB681B689B69A2
:1022F0007B617B6938E1FB681B8D032B00F2F18069
:10230000FB681B8D012B23D17A6A396BF86800F0CA
:102310001BFD0346002B01D0012339E1FB681B683C
:102320001A69FB685B6AD2B21A70FB685B6A5A1C56
:10233000FB685A62FB681B8D013B9AB2FB681A85E9
:10234000FB685B8D9BB2013B9AB2FB685A850BE13F
:10235000FB681B8D022B4ED17B6A00933B6B0022E6
:102360000649F86800F098FB0346002B08D00123CB
:102370000EE100BF020010000000FFFF040001009A
:10238000FB681B681A68FB681B6842F400721A60DD
:10239000FB681B681A69FB685B6AD2B21A70FB683B
:1023A0005B6A5A1CFB685A62FB681B8D013B9AB240
:1023B000FB681A85FB685B8D9BB2013B9AB2FB6898
:1023C0005A85FB681B681A69FB685B6AD2B21A708F
:1023D000FB685B6A5A1CFB685A62FB681B8D013BF9
:1023E0009AB2FB681A85FB685B8D9BB2013B9AB27F
:1023F000FB685A85B8E07B6A00933B6B0022664914
:10240000F86800F049FB0346002B01D00123BFE030
:10241000FB681B681A68FB681B6822F480621A60FC
:10242000FB681B681A69FB685B6AD2B21A70FB68AA
:102430005B6A5A1CFB685A62FB681B8D013B9AB2AF
:10244000FB681A85FB685B8D9BB2013B9AB2FB6807
:102450005A857B6A00933B6B00224F49F86800F075
:102460001BFB0346002B01D0012391E0FB681B6896
:102470001A68FB681B6842F400721A60FB681B68EC
:102480001A69FB685B6AD2B21A70FB685B6A5A1CF5
:10249000FB685A62FB681B8D013B9AB2FB681A8588
:1024A000FB685B8D9BB2013B9AB2FB685A85FB6867
:1024B0001B681A69FB685B6AD2B21A70FB685B6AB8
:1024C0005A1CFB685A62FB681B8D013B9AB2FB6881
:1024D0001A85FB685B8D9BB2013B9AB2FB685A85FB
:1024E00042E07A6A396BF86800F02EFC0346002B54
:1024F00001D001234CE0FB681B681A69FB685B6A2A
:10250000D2B21A70FB685B6A5A1CFB685A62FB689D
:102510001B8D013B9AB2FB681A85FB685B8D9BB2F1
:10252000013B9AB2FB685A85FB681B685B6903F044
:102530000403042B18D1FB681B681A69FB685B6AEB
:10254000D2B21A70FB685B6A5A1CFB685A62FB685D
:102550001B8D013B9AB2FB681A85FB685B8D9BB2B1
:10256000013B9AB2FB685A85FB681B8D002B7FF4F8
:10257000C2AEFB68202283F83D20FB68002283F86E
:102580003E20FB68002283F83C20002300E0022369
:1025900018462837BD4680BD0400010080B58AB0CA
:1025A00002AFF8607A603B600B467B81FFF730F842
:1025B000F8610023BB61FB6893F83D30DBB2202B50
:1025C00040F01181FB690093192301228849F868C2
:1025D00000F062FA0346002B01D0022304E1FB68FD
:1025E00093F83C30012B01D10223FDE0FB6801226E
:1025F00083F83C20FB681B681B6803F00103012B78
:1026000007D0FB681B681A68FB681B6842F0010270
:102610001A60FB681B681A68FB681B6822F400627A
:102620001A60FB68242283F83D20FB6800221A64AC
:10263000FB68704ADA62FB681B681A68FB681B68F3
:1026400042F480721A60FB6900933B6800224FF0ED
:102650000111F86800F020FA0346002B0DD0FB684A
:102660001B681B6803F48073B3F5807F03D1FB689C
:102670004FF400721A640323B6E07B89DBB21A467A
:10268000FB681B6802F0FE021A61FEF7C1FFF861E9
:10269000FB681B685B6903F00203022B0CBF01237C
:1026A0000023DBB2FB75FB681B685B6903F4806386
:1026B000B3F5806F0CBF01230023DBB2BB7525E0AF
:1026C000FEF7A6FF0246FB69D31A3A689A4202D384
:1026D0003B68002B03D1FB68A02283F83D20FB68F8
:1026E0001B685B6903F00203022B0CBF012300236C
:1026F000DBB2FB75FB681B685B6903F48063B3F5B1
:10270000806F0CBF01230023DBB2BB75FB6893F81D
:102710003D30DBB2A02B05D0FB7D002B02D1BB7D71
:10272000002BCDD0FB68202283F83D20FB681B687E
:102730005B6903F00203022B29D1FB681B681A684E
:10274000FB681B6842F400721A6000233B61FB685F
:102750001B685B693B61FB681B689B693B613B696C
:10276000FB690093192301222149F86800F094F9CC
:102770000346002B01D0012336E0FB68202283F8BA
:102780003D20FB68002283F83C2000232CE0FB68FE
:102790001B681A68FB681B6842F400721A60FB68C9
:1027A0001B686FF480625A61FB6900931923012250
:1027B0000F49F86800F070F90346002B01D001239F
:1027C00012E0BB690133BB61BA697B689A42FFF4CE
:1027D00032AFFB68202283F83D20FB68002283F89B
:1027E0003C20012300E0022318462037BD4680BD6F
:1027F000020010000000FFFF80B588B002AFF86053
:102800007A603B600B467B81FB68DB6A7B617B699E
:10281000082B06D07B69012B03D07B6913F5803F21
:1028200008D1FB681B681A68FB681B6842F4807259
:102830001A600BE0FB681B6B122B07D1FB681B684F
:102840001A68FB681B6842F480721A603B68009348
:102850007B6800224FF00111F86800F01DF9034673
:10286000002B0DD0FB681B681B6803F48073B3F565
:10287000807F03D1FB684FF400721A64032335E0B4
:10288000FB681B69B3F5804F08D17B89DBB21A4620
:10289000FB681B6802F0FE021A611BE07B89DB11FA
:1028A000DBB203F00603DBB263F00F03DAB2FB68BE
:1028B0001B681A613B687A680E49F86800F043F9B2
:1028C0000346002B01D0012310E07B89DAB2FB68BC
:1028D0001B681A613B687A680749F86800F033F9A9
:1028E0000346002B01D0012300E0002318461837CF
:1028F000BD4680BD080001000200010080B588B01F
:1029000002AFF8607A603B600B467B81FB68DB6A54
:102910007B61FB681B681A68FB681B6842F4806275
:102920001A607B69082B06D07B69012B03D07B6979
:1029300013F5803F08D1FB681B681A68FB681B68A9
:1029400042F480721A600BE0FB681B6B112B07D1FD
:10295000FB681B681A68FB681B6842F480721A6087
:102960003B6800937B6800224FF00111F86800F08B
:1029700093F80346002B0DD0FB681B681B6803F41B
:102980008073B3F5807F03D1FB684FF400721A6443
:10299000032379E0FB681B69B3F5804F08D17B897D
:1029A000DBB243F00103DAB2FB681B681A615FE037
:1029B0007B89DB11DBB203F00603DBB263F00F03AC
:1029C000DAB2FB681B681A613B687A683049F868BC
:1029D00000F0B9F80346002B01D0012354E07B89B5
:1029E000DAB2FB681B681A613B687A682949F868A3
:1029F00000F0A9F80346002B01D0012344E0002396
:102A00003B61FB681B685B693B61FB681B689B69FA
:102A10003B613B69FB681B681A68FB681B6842F4F2
:102A200080721A603B6800937B6800224FF00111AE
:102A3000F86800F031F80346002B0DD0FB681B68E6
:102A40001B6803F48073B3F5807F03D1FB684FF4F8
:102A500000721A64032317E07B89DB11DBB203F0F9
:102A60000603DBB263F00E03DAB2FB681B681A617F
:102A70003B687A680749F86800F065F80346002B60
:102A800001D0012300E0002318461837BD4680BD61
:102A9000080001000200010080B584B000AFF860BA
:102AA000B9603B601346FB7125E03B68B3F1FF3F23
:102AB00021D0FEF7ADFD0246BB69D31A3A689A42AF
:102AC00002D33B68002B16D1FB6800221A63FB6817
:102AD000202283F83D20FB68002283F83E20FB681B
:102AE0001B6C43F02002FB681A64FB68002283F829
:102AF0003C20012323E0BB681B0CDBB2012B0DD172
:102B0000FB681B685B69DA43BB6813409BB2002B10
:102B10000CBF01230023DBB21A460CE0FB681B68E4
:102B20009B69DA43BB6813409BB2002B0CBF0123A7
:102B30000023DBB21A46FB799A42B6D0002318462E
:102B40001037BD4680BD80B584B000AFF860B96075
:102B50007A603B6051E0FB681B685B6903F480634B
:102B6000B3F5806F23D1FB681B681A68FB681B688C
:102B700042F400721A60FB681B686FF480625A614D
:102B8000FB6800221A63FB68202283F83D20FB6863
:102B9000002283F83E20FB681B6C43F00402FB68B4
:102BA0001A64FB68002283F83C20012346E07B681E
:102BB000B3F1FF3F21D0FEF72BFD02463B68D31A4D
:102BC0007A689A4202D37B68002B16D1FB680022F8
:102BD0001A63FB68202283F83D20FB68002283F8FB
:102BE0003E20FB681B6C43F02002FB681A64FB6804
:102BF000002283F83C20012320E0BB681B0CDBB2E1
:102C0000012B0CD1FB681B685B69DA43BB6813407E
:102C10009BB2002B14BF01230023DBB20BE0FB6847
:102C20001B689B69DA43BB6813409BB2002B14BF3F
:102C300001230023DBB2002B8DD10023184610376F
:102C4000BD4680BD80B584B000AFF860B9607A60E1
:102C50002DE0F86800F0CEF80346002B01D00123E8
:102C60002DE0BB68B3F1FF3F21D0FEF7D1FC024657
:102C70007B68D31ABA689A4202D3BB68002B16D17C
:102C8000FB6800221A63FB68202283F83D20FB6862
:102C9000002283F83E20FB681B6C43F02002FB6897
:102CA0001A64FB68002283F83C20012307E0FB68DC
:102CB0001B685B6903F08003802BCAD10023184690
:102CC0001037BD4680BD80B584B000AFF860B960F4
:102CD0007A602DE0F86800F08DF80346002B01D0F3
:102CE00001232DE0BB68B3F1FF3F21D0FEF790FC3C
:102CF00002467B68D31ABA689A4202D3BB68002B9B
:102D000016D1FB6800221A63FB68202283F83D205D
:102D1000FB68002283F83E20FB681B6C43F0200216
:102D2000FB681A64FB68002283F83C20012307E05B
:102D3000FB681B685B6903F00403042BCAD1002302
:102D400018461037BD4680BD80B584B000AFF8602E
:102D5000B9607A6042E0FB681B685B6903F01003AE
:102D6000102B19D1FB681B686FF010025A61FB68C9
:102D700000221A63FB68202283F83D20FB680022B2
:102D800083F83E20FB681A6CFB681A64FB6800221B
:102D900083F83C20012329E0FEF73AFC02467B68D9
:102DA000D31ABA689A4202D3BB68002B16D1FB68CB
:102DB00000221A63FB68202283F83D20FB68002272
:102DC00083F83E20FB681B6C43F02002FB681A640A
:102DD000FB68002283F83C20012307E0FB681B68A6
:102DE0005B6903F04003402BB5D100231846103730
:102DF000BD4680BD80B483B000AF78607B681B683F
:102E00005B6903F48063B3F5806F1BD17B681B683B
:102E10006FF480625A617B6800221A637B6820220B
:102E200083F83D207B68002283F83E207B681B6C82
:102E300043F004027B681A647B68002283F83C201C
:102E4000012300E0002318460C37BD465DF8047BE3
:102E50007047000080B586B000AF78607B68002BBB
:102E600001D1012367E27B681B6803F00103002B9B
:102E700075D0884B9B6803F00C03042B0CD0854B5A
:102E80009B6803F00C03082B12D1824B5B6803F4A0
:102E90008003B3F5800F0BD17E4B1B6803F4003326
:102EA000002B5BD07B685B68002B57D1012342E28B
:102EB0007B685B68B3F5803F06D1764B1B68754A2B
:102EC00043F4803313601DE07B685B68B3F5A02F8B
:102ED0000CD1704B1B686F4A43F4802313606D4B19
:102EE0001B686C4A43F4803313600BE0694B1B682A
:102EF000684A23F480331360664B1B68654A23F4E9
:102F0000802313607B685B68002B13D0FEF780FB87
:102F1000386108E0FEF77CFB02463B69D31A642B5C
:102F200001D9032307E25B4B1B6803F40033002B3A
:102F3000F0D014E0FEF76CFB386108E0FEF768FBA8
:102F400002463B69D31A642B01D90323F3E1514BA9
:102F50001B6803F40033002BF0D100E000BF7B6856
:102F60001B6803F00203002B63D04A4B9B6803F0FD
:102F70000C03002B0BD0474B9B6803F00C03082B72
:102F80001CD1444B5B6803F48003002B16D1414BEA
:102F90001B6803F00203002B05D07B68DB68012B64
:102FA00001D00123C7E13B4B1B6823F0F8027B688B
:102FB0001B69DB00374913430B603AE07B68DB6831
:102FC000002B20D0344B01221A60FEF721FB386120
:102FD00008E0FEF71DFB02463B69D31A022B01D91C
:102FE0000323A8E12B4B1B6803F00203002BF0D056
:102FF000284B1B6823F0F8027B681B69DB0025491E
:1030000013430B6015E0244B00221A60FEF700FB0F
:10301000386108E0FEF7FCFA02463B69D31A022B3E
:1030200001D9032387E11B4B1B6803F00203002B2C
:10303000F0D17B681B6803F00803002B36D07B6857
:103040005B69002B16D0154B01221A60FEF7E0FADF
:10305000386108E0FEF7DCFA02463B69D31A022B1E
:1030600001D9032367E10B4B5B6F03F00203002BD5
:10307000F0D01BE0094B00221A60FEF7C9FA386154
:103080000EE0FEF7C5FA02463B69D31A022B07D9B8
:10309000032350E10038024000004742800E4742BF
:1030A000884B5B6F03F00203002BEAD17B681B683F
:1030B00003F00403002B00F097800023FB75814B85
:1030C0001B6C03F08053002B0FD10023BB607D4BA2
:1030D0001B6C7C4A43F0805313647A4B1B6C03F0E7
:1030E0008053BB60BB680123FB75774B1B6803F4FF
:1030F0008073002B18D1744B1B68734A43F48073A0
:103100001360FEF785FA386108E0FEF781FA02469F
:103110003B69D31A022B01D903230CE16A4B1B68CC
:1031200003F48073002BF0D07B689B68012B06D1E1
:10313000644B1B6F634A43F0010313671CE07B6819
:103140009B68052B0CD15F4B1B6F5E4A43F0040359
:1031500013675C4B1B6F5B4A43F0010313670BE083
:10316000584B1B6F574A23F001031367554B1B6FD6
:10317000544A23F0040313677B689B68002B15D027
:10318000FEF746FA38610AE0FEF742FA02463B696A
:10319000D31A41F28832934201D90323CBE0494B41
:1031A0001B6F03F00203002BEED014E0FEF730FAA1
:1031B00038610AE0FEF72CFA02463B69D31A41F265
:1031C0008832934201D90323B5E03E4B1B6F03F0D5
:1031D0000203002BEED1FB7D012B05D1394B1B6C7B
:1031E000384A23F0805313647B689B69002B00F0FE
:1031F000A180344B9B6803F00C03082B5CD07B68E8
:103200009B69022B41D1314B00221A60FEF700FA74
:10321000386108E0FEF7FCF902463B69D31A022B3D
:1032200001D9032387E0274B1B6803F00073002BB1
:10323000F0D17B68DA697B681B6A1A437B685B6A3A
:103240009B011A437B689B6A5B08013B1B041A4382
:103250007B68DB6A1B061B4913434B601B4B012237
:103260001A60FEF7D5F9386108E0FEF7D1F9024699
:103270003B69D31A022B01D903235CE0114B1B6875
:1032800003F00073002BF0D054E0104B00221A60C2
:10329000FEF7BEF9386108E0FEF7BAF902463B696D
:1032A000D31A022B01D9032345E0064B1B6803F018
:1032B0000073002BF0D13DE07B689B69012B07D1A7
:1032C000012338E0003802400070004060004742AF
:1032D0001B4B5B68FB607B689B69012B28D0FB68FC
:1032E00003F480027B68DB699A4221D1FB6803F01A
:1032F0003F027B681B6A9A421AD1FA6847F6C0738C
:1033000013407A68526A9201934211D1FB6803F428
:1033100040327B689B6A5B08013B1B049A4207D1E1
:10332000FB6803F070627B68DB6A1B069A4201D07F
:10333000012300E0002318461837BD4680BD00BFBA
:103340000038024080B584B000AF786039607B6897
:10335000002B01D10123CCE0684B1B6803F007036D
:103360003A689A420CD9654B3A68D2B21A70634BEC
:103370001B6803F007033A689A4201D00123B8E0C2
:103380007B681B6803F00203002B20D07B681B685E
:1033900003F00403002B05D0594B9B68584A43F4B3
:1033A000E05393607B681B6803F00803002B05D093
:1033B000534B9B68524A43F460439360504B9B6865
:1033C00023F0F0027B689B684D4913438B607B6858
:1033D0001B6803F00103002B44D07B685B68012B62
:1033E00007D1474B1B6803F40033002B19D101238D
:1033F0007FE07B685B68022B03D07B685B68032BF4
:1034000007D13F4B1B6803F00073002B09D1012348
:103410006FE03B4B1B6803F00203002B01D101233B
:1034200067E0374B9B6823F003027B685B68344995
:1034300013438B60FEF7ECF8F8600AE0FEF7E8F85B
:103440000246FB68D31A41F28832934201D9032322
:103450004FE02B4B9B6803F00C027B685B689B0082
:103460009A42EBD1254B1B6803F007033A689A4256
:103470000CD2224B3A68D2B21A70204B1B6803F070
:1034800007033A689A4201D0012332E07B681B6847
:1034900003F00403002B08D0194B9B6823F4E0527F
:1034A0007B68DB68164913438B607B681B6803F0FD
:1034B0000803002B09D0124B9B6823F460427B6801
:1034C0001B69DB000E4913438B6000F021F80246B4
:1034D0000B4B9B681B0903F00F030A49CB5C22FAD4
:1034E00003F3094A1360094B1B681846FEF74CF8B2
:1034F000002318461037BD4680BD00BF003C024087
:1035000000380240F4A80008000000200800002055
:103510002DE9B04F94B000AF00237B640023FB641F
:1035200000233B640023BB64794B9B6803F00C03CE
:10353000082B0DD0082B00F2E180002B02D0042BC9
:1035400003D0DBE0734BBB64DBE0734BBB64D8E0C0
:103550006F4B5B6803F03F037B646D4B5B6803F468
:103560008003002B63D06A4B5B689B090022BB631E
:10357000FA63BB6BC3F308033B6300237B63D7E9A8
:103580000C4522462B464FF000004FF00001590138
:1035900041EAD261500102460B462146511A396177
:1035A000294663EB01037B614FF000024FF00003FB
:1035B000D7E904AB59468B01514643EA9163514622
:1035C0008A015146B2EB0108594663EB01094FF0FD
:1035D00000024FF000034FEAC90343EA58734FEA71
:1035E000C80290469946234618EB0303BB602B465E
:1035F00049EB0303FB604FF000024FF00003D7E9F3
:10360000024529464B02214643EAD15321464A024C
:10361000104619467B6C0022BB62FA62D7E90A2386
:10362000FCF736FE02460B461346FB6458E0384B67
:103630005B689B09002218461146C0F308033B62F1
:1036400000237B62D7E9088942464B464FF00000D1
:103650004FF00001590141EAD261500102460B4688
:103660004146B2EB010A494663EB010B4FF0000201
:103670004FF000034FEA8B1343EA9A634FEA8A1232
:10368000B2EB0A0463EB0B054FF000024FF00003AE
:10369000EB0043EA5473E20014461D464346E31828
:1036A0003B604B4645EB03037B604FF000024FF05D
:1036B0000003D7E9004529468B02214643EA91538E
:1036C00021468A02104619467B6C0022BB61FA61D2
:1036D000D7E90623FCF7DCFD02460B461346FB64E4
:1036E0000B4B5B681B0C03F0030301335B003B6473
:1036F000FA6C3B6CB2FBF3F3BB6402E0054BBB64BA
:1037000000BFBB6C18465037BD46BDE8B08F00BF48
:10371000003802400024F40000127A0080B400AFA8
:10372000034B1B681846BD465DF8047B704700BF1D
:103730000000002080B500AFFFF7F0FF0246054B08
:103740009B689B0A03F007030349CB5C22FA03F34F
:10375000184680BD0038024004A9000880B500AFBB
:10376000FFF7DCFF0246054B9B685B0B03F007038A
:103770000349CB5C22FA03F3184680BD00380240AF
:1037800004A9000880B582B000AF78607B68002B88
:1037900001D1012322E07B6893F83430DBB2002BA7
:1037A00005D17B6800221A777868FDF749F87B68B5
:1037B000032283F83420786800F014F80346002BC5
:1037C00001D001230AE07B6800229A637B68002213
:1037D0001A637B68012283F83420002318460837D7
:1037E000BD4680BDB0B58EB004AF78600023BB602D
:1037F0000023FB6000233B6100237B610023BB614E
:103800007623FB617B681D686C4607F1140393E81F
:10381000070084E8070007F108030ECB284601F0F3
:103820000BFB034687F8273097F82730002B01D091
:1038300001234FE0294B00221A607B681B68184661
:1038400001F032FB254B01221A600220FDF7ECFE4D
:10385000786800F011FE38623B6A002B0BD07B6861
:10386000012283F834207B689A6B3B6A1A437B6899
:103870009A6301232EE0786800F030FD38623B6ADD
:10388000002B0BD07B68012283F834207B689A6B75
:103890003B6A1A437B689A6301231BE07B681B68C1
:1038A0004FF40071184601F091FB38623B6A002B1F
:1038B0000FD07B681B680A4A9A637B689A6B3B6AE5
:1038C0001A437B689A637B68012283F834200123C2
:1038D00000E0002318462837BD46B0BDA080254231
:1038E000FF05400080B58CB000AFF860B9607A6029
:1038F0003B607B68BB62BB68002B07D1FB689B6B9E
:1039000043F00062FB689A630123C0E0FB6893F810
:103910003430DBB2012B40F0B980FB6800229A639F
:10392000BA6A3B681A44FB68DB6D9A4207D9FB68A8
:103930009B6B43F00072FB689A630123A7E0FB686E
:10394000032283F83420FB681B680022DA62FB68DC
:103950001B68DB6BFA68126843F44A7343F0020396
:10396000D363FB681B6C4C4ADA63FB681B6C4B4AE5
:10397000DA64FB681B6C00221A65FB681B6C002272
:103980009A60FB681B6C1B681B6823F0C001FB6816
:103990001B6C9A68FB681B6C1B680A431A60FB6807
:1039A000186CFB681B6880331946BA683B685B0279
:1039B0009B08FDF742FF0346002B17D0FB681B68EE
:1039C000DA6BFB681B6822F49572DA63FB681B688C
:1039D000334A9A63FB689B6B43F08042FB689A63AF
:1039E000FB68012283F83420012350E02D4B012293
:1039F0001A60FB685B6C012B02D0BB6A5B02BB6286
:103A00004FF0FF333B613B685B027B619023BB61FE
:103A10000223FB6100233B6201237B62FB681B687E
:103A200007F110021146184601F0A4FA3B68012B79
:103A30000AD9FB6882221A63FB681B68B96A1846B8
:103A400001F008FBF86209E0FB6881221A63FB6859
:103A50001B68B96A184601F0DBFAF862FB6A002BB2
:103A600012D0FB681B680E4A9A63FB689A6BFB6A6C
:103A70001A43FB689A63FB68012283F83420FB68D1
:103A800000221A63012302E0002300E0022318460B
:103A90003037BD4680BD00BFC7410008394200082D
:103AA000FF0540008C85254280B58CB000AFF860E2
:103AB000B9607A603B607B68BB62BB68002B07D152
:103AC000FB689B6B43F00062FB689A630123C5E0CF
:103AD000FB6893F83430DBB2012B40F0BE80FB680A
:103AE00000229A63BA6A3B681A44FB68DB6D9A420B
:103AF00007D9FB689B6B43F00072FB689A63012354
:103B0000ACE0FB68032283F83420FB681B680022CA
:103B1000DA62FB681B68DB6BFA68126843F40673B1
:103B200043F00203D363FB68DB6B4E4ADA63FB6846
:103B3000DB6B4D4ADA64FB68DB6B00221A65FB68BD
:103B40005B6C012B02D0BB6A5B02BB623B68012B42
:103B50000AD9FB68A0221A63FB681B68B96A184679
:103B600001F0BCFAF86209E0FB6890221A63FB6876
:103B70001B68B96A184601F08FFAF862FB6A002BDD
:103B800012D0FB681B68394A9A63FB689A6BFB6A20
:103B90001A43FB689A63FB68012283F83420FB68B0
:103BA00000221A63012359E0314B01221A60FB689D
:103BB000DB6B40229A60FB68DB6B1B681B6823F0A1
:103BC000C001FB68DB6B9A68FB68DB6B1B680A4310
:103BD0001A60FB68D86BB968FB681B6880331A46AB
:103BE0003B685B029B08FDF728FE0346002B1CD0B8
:103BF000FB681B68DB6BFA68126823F4067323F01A
:103C00000203D363FB681B68184A9A63FB689B6BCB
:103C100043F08042FB689A63FB68012283F83420FA
:103C2000FB6800221A63012318E04FF0FF333B6169
:103C30003B685B027B619023BB610023FB61002337
:103C40003B6201237B62FB681B6807F1100211468F
:103C5000184601F08FF9002300E0022318463037A0
:103C6000BD4680BD9D41000839420008FF05400067
:103C70008C85254280B483B000AF786000BF0C37DC
:103C8000BD465DF8047B704780B483B000AF7860B8
:103C900039607B685B6E9B0FDAB23B681A707B6899
:103CA0005B6E9B0EDBB203F00F03DAB23B685A7017
:103CB0007B685B6E1B0EDBB203F00303DAB23B687A
:103CC0009A707B685B6E1B0CDAB23B68DA707B68BB
:103CD0005B6E1B0ADAB23B681A717B685B6EDAB204
:103CE0003B685A717B689B6E1B0D9AB23B68DA8009
:103CF0007B689B6E1B0CDBB203F00F03DAB23B68F0
:103D00001A727B689B6EDB0BDBB203F00103DAB245
:103D10003B685A727B689B6E9B0BDBB203F001031E
:103D2000DAB23B689A727B689B6E5B0BDBB203F086
:103D30000103DAB23B68DA727B689B6E1B0BDBB265
:103D400003F00103DAB23B681A733B6800225A732E
:103D50007B685B6C002B63D17B689B6E9A0040F69E
:103D6000FC7313407A68D26E920F1A433B681A6153
:103D70007B68DB6EDB0EDBB203F00703DAB23B6875
:103D80001A757B68DB6E1B0EDBB203F00703DAB239
:103D90003B685A757B68DB6E5B0DDBB203F0070393
:103DA000DAB23B689A757B68DB6E9B0CDBB203F082
:103DB0000703DAB23B68DA757B68DB6EDB0BDBB2DC
:103DC00003F00703DAB23B681A763B681B695A1C9A
:103DD0007B685A653B681B7EDBB203F00703023346
:103DE000012202FA03F37A68526D03FB02F27B6848
:103DF0005A653B681B7ADBB203F00F0301229A403D
:103E00007B689A657B685B6D7A68926D520A03FBEA
:103E100002F27B68DA657B684FF400721A6631E063
:103E20007B685B6C012B1DD17B689B6E1B0403F4CC
:103E30007C127B68DB6E1B0C1A433B681A613B6883
:103E40001B6901339A027B685A657B685A6D7B68EF
:103E5000DA657B684FF400729A657B689A6D7B68BF
:103E60001A660FE07B681B68584A9A637B689B6BF5
:103E700043F080527B689A637B68012283F8342088
:103E800001239DE07B68DB6E9B0BDBB203F001033B
:103E9000DAB23B685A767B68DB6EDB09DBB203F093
:103EA0007F03DAB23B689A767B68DB6EDBB203F0A5
:103EB0007F03DAB23B68DA767B681B6FDB0FDAB21E
:103EC0003B681A777B681B6F5B0FDBB203F0030361
:103ED000DAB23B685A777B681B6F9B0EDBB203F04C
:103EE0000703DAB23B689A777B681B6F9B0DDBB2E6
:103EF00003F00F03DAB23B68DA777B681B6F5B0D68
:103F0000DBB203F00103DAB23B6883F820203B68A0
:103F1000002283F821207B681B6F1B0CDBB203F0AF
:103F20000103DAB23B6883F822207B681B6FDB0B4E
:103F3000DBB203F00103DAB23B6883F823207B682D
:103F40001B6F9B0BDBB203F00103DAB23B6883F813
:103F500024207B681B6F5B0BDBB203F00103DAB23A
:103F60003B6883F825207B681B6F1B0BDBB203F0DB
:103F70000103DAB23B6883F826207B681B6F9B0A3B
:103F8000DBB203F00303DAB23B6883F827207B68D7
:103F90001B6F1B0ADBB203F00303DAB23B6883F842
:103FA00028207B681B6F5B08DBB203F07F03DAB26B
:103FB0003B6883F829203B68012283F82A200023EC
:103FC00018460C37BD465DF8047B7047FF0540007E
:103FD00080B483B000AF786039607B685A6C3B680E
:103FE0001A607B689A6C3B685A607B68DA6C3B6845
:103FF0009A607B681A6D3B68DA607B685A6D3B6833
:104000001A617B689A6D3B685A617B68DA6D3B6820
:104010009A617B681A6E3B68DA61002318460C3798
:10402000BD465DF8047B7047B0B58EB004AF7860D4
:104030003960002387F827307B68032283F8342017
:104040007B685B6C032B2ED03B68B3F5805F06D199
:104050007B689B6B43F080527B689A6329E03B68E6
:10406000B3F5006F0AD1786800F0BCFA38627B685B
:104070009A6B3B6A1A437B689A631AE03B68002B91
:104080000AD1786800F0F9FA38627B689A6B3B6A6B
:104090001A437B689A630CE07B689B6B43F0006279
:1040A0007B689A6305E07B689B6B43F080527B687A
:1040B0009A637B689B6B002B0BD07B681B68264A3E
:1040C0009A637B68012283F83420012387F8273024
:1040D0001FE07B685B68BB607B689B68FB607B68FC
:1040E000DB683B613B687B617B685B69BB617B68CC
:1040F0009B69FB617B681D686C4607F1140393E8BC
:10410000070084E8070007F108030ECB284600F0FB
:1041100093FE7B681B684FF40071184600F056FF51
:1041200038623B6A002B0CD07B681B680A4A9A6392
:104130007B689A6B3B6A1A437B689A63012387F812
:1041400027307B68012283F8342097F827301846FF
:104150002837BD46B0BD00BFFF05400080B586B022
:1041600000AF78600023FB6007F10C031946786804
:1041700000F010FA78617B69002B05D07B689A6BA0
:104180007B691A437B689A63FB685B0A03F00F0341
:104190003B613B6918461837BD4680BD80B485B089
:1041A00000AF78607B689B6BFB60FB681B68DA6B19
:1041B000FB681B6842F48072DA6300BF1437BD46A7
:1041C0005DF8047B704780B584B000AF78607B6891
:1041D0009B6BFB60FB681B6B822B11D1FB681B6820
:1041E000184600F09DFFB860BB68002B08D0FB6844
:1041F0009A6BBB681A43FB689A63F868FFF73AFD4D
:10420000FB681B68DA6AFB681B6822F00802DA6246
:10421000FB681B6840F23A529A63FB68012283F8FC
:104220003420FB6800221A63F86801F0F1FB00BF3C
:104230001037BD4680BD000080B586B000AF786005
:104240007B689B6B7B617868FDF74FFB0346022B15
:104250003ED07B691B6C5B6D3B617B69DB6B5B6D8F
:10426000FB603B69012B02D0FB68012B2DD17B69E0
:104270001B68194A9A637B691B68DA6B7B691B6848
:1042800022F49D72DA637B699B6B43F080427B6909
:104290009A637869FFF762FFB860BB68062B02D0AB
:1042A000BB68052B0AD17B691B68184600F038FFF4
:1042B00002467B699B6B1A437B699A637B69012287
:1042C00083F834207B6900221A637869FFF7D2FCF7
:1042D00000BF1837BD4680BDFF054000B0B594B0A3
:1042E00004AF78600123FB817B681B68184600F0EF
:1042F000E9FD0346002B02D14FF08063B8E07B68F4
:104300005B6C032B2FD07B681B68184601F012F8FA
:10431000F863FB6B002B01D0FB6BA9E07B681B688B
:104320000021184600F013FE02467B685A677B683E
:104330001B680421184600F00AFE02467B689A6753
:104340007B681B680821184600F001FE02467B6866
:10435000DA677B681B680C21184600F0F8FD0246FE
:104360007B68C3F880207B685B6C032B0DD07B6877
:104370001B6807F10E021146184601F018F8F863A1
:10438000FB6B002B01D0FB6B72E07B685B6C032B3B
:1043900036D0FB891A467B681A657B681A687B6889
:1043A0001B6D1B041946104600F0E2FFF863FB6B1F
:1043B000002B01D0FB6B5BE07B681B68002118467B
:1043C00000F0C5FD02467B685A667B681B680421C5
:1043D000184600F0BCFD02467B689A667B681B6845
:1043E0000821184600F0B3FD02467B68DA667B6858
:1043F0001B680C21184600F0AAFD02467B681A676C
:104400007B681B680421184600F0A1FD03461A0DC5
:104410007B68DA6407F1100319467868FFF734FC0B
:104420000346002B02D04FF0805321E07B681968CF
:104430007B681B6D1B0400221C46154622462B463A
:10444000084600F08FFEF863FB6B002B01D0FB6B7E
:104450000EE07B681D687B686C4603F1100207CA9A
:1044600084E8070004330ECB284600F0E5FC002367
:1044700018464037BD46B0BD80B586B000AF786005
:104480000023BB6000237B6100233B617B681B68CA
:10449000184600F08AFEF860FB68002B01D0FB682C
:1044A00072E07B681B68184600F09DFEF860FB68B0
:1044B000002B0DD07B6800229A647B681B6818462D
:1044C00000F073FEF860FB68002B04D0FB685BE033
:1044D0007B6801229A647B689B6C012B37D17B68D7
:1044E0001B680021184600F09DFEF860FB68002B59
:1044F0002DD04FF0805347E07B681B6800211846A1
:1045000000F090FEF860FB68002B01D0FB683BE0F8
:104510007B681B681E49184600F0A6FEF860FB6821
:10452000002B02D04FF080532EE07B681B680021E7
:10453000184600F00CFD78617B69DB0F012B01D17F
:10454000012300E000233B61BB680133BB60BB6813
:104550004FF6FE72934202D83B69002BCCD0BB6869
:104560004FF6FE72934202D94FF080730CE07B69E4
:1045700003F08043002B03D07B6801225A6402E0E1
:104580007B6800225A64002318461837BD4680BD58
:10459000000010C180B584B000AF786039603B681E
:1045A000002B02D14FF0006318E07B681A687B682B
:1045B0001B6D1B041946104600F01AFFF860FB68DB
:1045C000002B01D0FB6809E07B681B6800211846BE
:1045D00000F0BDFC02463B681A6000231846103705
:1045E000BD4680BD80B586B000AF78600023FB601B
:1045F00000233B617B681B680021184600F0A7FC84
:10460000034603F00073B3F1007F02D14FF400635F
:104610002FE007F10C031946786800F079F878610B
:104620007B69002B01D07B6923E03B6903F4802385
:10463000002B1CD07B681A687B681B6D1B04194615
:10464000104600F0EFFD78617B69002B01D07B699B
:104650000FE07B681B680221184600F028FE786195
:104660007B69002B01D07B6903E0002301E04FF060
:10467000806318461837BD4680BD80B586B000AF50
:1046800078600023FB6000233B617B681B6800218E
:10469000184600F05CFC034603F00073B3F1007FA2
:1046A00002D14FF400632FE007F10C03194678683C
:1046B00000F02EF878617B69002B01D07B6923E044
:1046C0003B6903F48033002B1CD07B681A687B683D
:1046D0001B6D1B041946104600F0A4FD78617B6930
:1046E000002B01D07B690FE07B681B680021184616
:1046F00000F0DDFD78617B69002B01D07B6903E070
:10470000002301E04FF0806318461837BD4680BD96
:1047100090B58FB000AF78603960FCF779FF3863EF
:1047200000237B630023BB600023FB603B68FB62CC
:104730007B681B680821184600F048FCB862BB6A19
:10474000002B01D0BB6AB2E07B681A687B681B6DE6
:104750001B041946104600F065FDB862BB6A002BC9
:1047600001D0BB6AA3E04FF0FF333B6108237B61BC
:104770003023BB610223FB6100233B6201237B6288
:104780007B681B6807F110021146184600F0F2FB27
:104790007B681B68184600F0ACFDB862BB6A002B52
:1047A0002AD0BB6A83E07B681B685B6B03F4001351
:1047B000002B0FD07B6819687B6B9B0007F1080208
:1047C000D418084600F063FB034623607B6B01337B
:1047D0007B6306E07B681B685B6B03F40053002B74
:1047E00012D0FCF715FF02463B6BD31AB3F1FF3F23
:1047F00002D14FF000435AE07B681B685B6B03F00B
:104800002A03002BCFD000E000BF7B681B685B6BE6
:1048100003F00803002B05D07B681B6808229A630D
:10482000082344E07B681B685B6B03F00203002BEA
:1048300005D07B681B6802229A63022337E07B68FD
:104840001B685B6B03F02003002B05D07B681B68A3
:1048500020229A6320232AE07B681B6840F23A52A8
:104860009A63FB681A06FB681B0203F47F031A4372
:10487000FB681B0A03F47F431A43FB681B0E1A43B1
:10488000FB6A1A60FB6A0433FB62BB681A06BB68EA
:104890001B0203F47F031A43BB681B0A03F47F4324
:1048A0001A43BB681B0E1A43FB6A1A6000231846A2
:1048B0003C37BD4690BD80B582B000AF78607B6864
:1048C000002B01D101233FE07B6893F83D30DBB240
:1048D000002B06D17B68002283F83C207868FCF727
:1048E00017F87B68242283F83D207B681B68DA6810
:1048F0007B681B6822F40052DA60786800F028F8C0
:104900007B681B681A697B681B6822F490421A61F5
:104910007B681B685A697B681B6822F02A025A610F
:104920007B681B68DA687B681B6842F40052DA60B7
:104930007B6800221A647B68202283F83D207B6814
:10494000202283F83E20002318460837BD4680BD4C
:104950002DE9B04FC0B000AFC7F8F400D7F8F4307D
:104960001B681B6923F44050D7F8F430D968D7F896
:10497000F4301A6840EA01031361D7F8F4309A68FA
:10498000D7F8F4301B691A43D7F8F4305B691A433F
:10499000D7F8F430DB691343C7F8F830D7F8F430B0
:1049A0001B68DB6823F4164121F00C01D7F8F430C2
:1049B0001A68D7F8F8300B43D360D7F8F4301B6887
:1049C0005B6923F44070D7F8F4309969D7F8F43074
:1049D0001A6840EA01035361D7F8F4301A688F4B24
:1049E0009A4205D0D7F8F4301A688D4B9A4204D118
:1049F000FEF7B4FEC7F8FC0003E0FEF79BFEC7F825
:104A0000FC00D7F8F430DB69B3F5004F40F00C81BF
:104A1000D7F8FC300022C7F8E830C7F8EC20D7E917
:104A20003A4522462B469118B9655B41FB65D7E9AB
:104A30001623214612EB0108294643EB01094FF0EA
:104A400000024FF000034FEAC90343EA58734FEAEC
:104A5000C80290469946234618EB0303C7F8E03096
:104A60002B4649EB0303C7F8E430D7F8F4305B6812
:104A70000022C7F8D830C7F8DC20D7E936120B4639
:104A8000DB183B65134642EB03037B65D7E9142330
:104A9000D7E93801FBF7FCFB02460B46614BA3FB51
:104AA00002235B091C01D7F8FC300022C7F8D03084
:104AB000C7F8D420D7E9348942464B469118B964E7
:104AC0005B41FB64D7E91223414612EB010A4946D8
:104AD00043EB010B4FF000024FF000034FEACB0312
:104AE00043EA5A734FEACA0292469B4643461AEB80
:104AF0000303C7F8C8304B464BEB0303C7F8CC3071
:104B0000D7F8F4305B680022C7F8C030C7F8C4207B
:104B1000D7E930120B46DB183B64134642EB030324
:104B20007B64D7E91023D7E93201FBF7B1FB0246DA
:104B30000B4611463B4BA3FB01235B09642202FB9E
:104B400003F3CB1ADB0003F13202364BA3FB022343
:104B50005B095B0003F4F8731C44D7F8FC300022B7
:104B6000C7F8B830C7F8BC20D7E92E8942464B4673
:104B70009118B9635B41FB63D7E90E234146511895
:104B8000396349464B417B634FF000024FF000030D
:104B9000D7E90CAB5946CB00514643EA5173514615
:104BA000CA0010461946034642469B18C7F8B03063
:104BB0004B460A4642EB0303C7F8B430D7F8F4304B
:104BC0005B680022C7F8A830C7F8AC20D7E92A12E2
:104BD0000B46DB18BB62134642EB0303FB62D7E9CB
:104BE0000A23D7E92C01FBF753FB02460B460D4B7A
:104BF000A3FB02135B09642101FB03F3D31ADB005F
:104C00003233084AA2FB03235B0903F00702D7F8FB
:104C1000F4301B6822449A6006E100BF0010014096
:104C2000001401401F85EB51D7F8FC300022C7F873
:104C3000A030C7F8A420D7E9288942464B469118EE
:104C400039625B417B62D7E90823414654184946E3
:104C500043EB01054FF000024FF00003EB0043EA85
:104C60005473E20014461D464346E318C7F89830D3
:104C70004B4645EB0303C7F89C30D7F8F4305B682C
:104C80000022C7F89030C7F894204FF000024FF090
:104C90000003D7E9244529468B00214643EA917356
:104CA00021468A00D7E92601FBF7F2FA02460B46B5
:104CB000604BA3FB02235B091C01D7F8FC300022E8
:104CC000C7F88830C7F88C20D7E9228942464B467E
:104CD0009118B9615B41FB61D7E906234146511840
:104CE000396149464B417B614FF000024FF00003B0
:104CF000D7E904AB5946CB00514643EA51735146BC
:104D0000CA0010461946034642469B18C7F8803031
:104D10004B460A4642EB0303C7F88430D7F8F43019
:104D20005B680022BB67FA674FF000024FF0000398
:104D3000D7E91E8949468B00414643EA91734146B3
:104D40008A00D7E92001FBF7A3FA02460B46114679
:104D5000384BA3FB01235B09642202FB03F3CB1A4C
:104D60001B013233334AA2FB03235B0903F0F00338
:104D70001C44D7F8FC3000223B677A67D7E91C89CE
:104D800042464B469118B9605B41FB60D7E902236C
:104D900041465118396049464B417B604FF0000253
:104DA0004FF00003D7E900AB5946CB00514643EA28
:104DB00051735146CA0010461946034642469B1895
:104DC000BB664B460A4642EB0303FB66D7F8F4305A
:104DD0005B6800223B667A664FF000024FF00003EA
:104DE000D7E9188949468B00414643EA9173414609
:104DF0008A00D7E91A01FBF74BFA02460B460D4B26
:104E0000A3FB02135B09642101FB03F3D31A1B010B
:104E10003233084AA2FB03235B0903F00F02D7F8E1
:104E2000F4301B6822449A6000BF07F58077BD46C6
:104E3000BDE8B08F1F85EB5184B080B485B000AF62
:104E4000786007F11C0080E80E000023FB60FA691F
:104E50003B6A1A437B6A1A43BB6A1A43FB6A1A43CA
:104E60003B6B1343FA681343FB607B685B6823F476
:104E7000FD4323F07F03FA681A437B685A600023DE
:104E800018461437BD465DF8047B04B0704780B403
:104E900083B000AF78607B68D3F8803018460C3759
:104EA000BD465DF8047B704780B483B000AF786086
:104EB0007B6803221A60002318460C37BD465DF854
:104EC000047B704780B483B000AF78607B681B6858
:104ED00003F0030318460C37BD465DF8047B7047AA
:104EE00080B485B000AF786039600023FB603B6818
:104EF0001A687B689A603B685A683B689B681A43EB
:104F00003B68DB681A433B681B691343FA68134329
:104F1000FB607B68DB6823F47F6323F00F03FA6890
:104F20001A437B68DA60002318461437BD465DF8E3
:104F3000047B704780B483B000AF78607B681B69E6
:104F4000DBB218460C37BD465DF8047B704780B471
:104F500085B000AF786039607B6814331A463B68CF
:104F60001344FB60FB681B6818461437BD465DF8A8
:104F7000047B704780B485B000AF7860396000234F
:104F8000FB603B681A687B685A623B685A687B68BA
:104F90009A623B689A683B68DB681A433B681B6906
:104FA0001A433B685B691343FA681343FB607B68F1
:104FB000DB6A23F0F702FB681A437B68DA6200239E
:104FC00018461437BD465DF8047B704780B588B03D
:104FD00000AF786039603B68BB601023FB60402302
:104FE0003B6100237B614FF48063BB6107F10803E1
:104FF00019467868FFF774FF41F28832102178680B
:1050000000F018FAF861FB6918462037BD4680BDEC
:1050100080B588B000AF786039603B68BB60112311
:10502000FB6040233B6100237B614FF48063BB61E5
:1050300007F1080319467868FFF752FF41F28832FA
:105040001121786800F0F6F9F861FB6918462037FD
:10505000BD4680BD80B588B000AF786039603B68E0
:10506000BB601223FB6040233B6100237B614FF454
:105070008063BB6107F1080319467868FFF730FFCA
:1050800041F288321221786800F0D4F9F861FB69A6
:1050900018462037BD4680BD80B588B000AF786027
:1050A00039603B68BB601823FB6040233B610023F1
:1050B0007B614FF48063BB6107F108031946786890
:1050C000FFF70EFF41F288321821786800F0B2F93C
:1050D000F861FB6918462037BD4680BD80B588B0B1
:1050E00000AF786039603B68BB601923FB604023E8
:1050F0003B6100237B614FF48063BB6107F10803D0
:1051000019467868FFF7ECFE41F288321921786879
:1051100000F090F9F861FB6918462037BD4680BD64
:1051200080B588B000AF78600023BB600C23FB60C3
:1051300040233B6100237B614FF48063BB6107F137
:10514000080319467868FFF7CBFE054A0C217868FA
:1051500000F070F9F861FB6918462037BD4680BD44
:1051600000E1F50580B58AB000AFF860C7E900231B
:105170003B683B6107237B614023BB610023FB61EC
:105180004FF480633B6207F110031946F868FFF79C
:10519000A7FE41F288320721F86800F04BF97862E7
:1051A0007B6A18462837BD4680BD80B588B000AF01
:1051B00078600023BB600023FB6000233B61002379
:1051C0007B614FF48063BB6107F10803194678687F
:1051D000FFF786FE786800F065FBF861FB6918460A
:1051E0002037BD4680BD80B588B000AF78604FF4F1
:1051F000D573BB600823FB6040233B6100237B61C8
:105200004FF48063BB6107F1080319467868FFF724
:1052100067FE786800F0F8FAF861FB6918462037F5
:10522000BD4680BD80B588B000AF786039603B680E
:10523000BB603723FB6040233B6100237B614FF45D
:105240008063BB6107F1080319467868FFF748FEE1
:1052500041F288323721786800F0ECF8F861FB6998
:1052600018462037BD4680BD80B588B000AF786055
:1052700039603B6843F0004343F48013BB6029234B
:10528000FB6040233B6100237B614FF48063BB6183
:1052900007F1080319467868FFF722FE786800F0E6
:1052A000FFF9F861FB6918462037BD4680BD80B51F
:1052B00088B000AF786039603B68BB600623FB6054
:1052C00040233B6100237B614FF48063BB6107F1A6
:1052D000080319467868FFF703FE41F28832062179
:1052E000786800F0A7F8F861FB6918462037BD46DA
:1052F00080BD80B588B000AF78600023BB603323E9
:10530000FB6040233B6100237B614FF48063BB6102
:1053100007F1080319467868FFF7E2FD41F2883289
:105320003321786800F086F8F861FB691846203769
:10533000BD4680BD80B588B000AF78600023BB60FB
:105340000223FB60C0233B6100237B614FF4806339
:10535000BB6107F1080319467868FFF7C1FD78685B
:1053600000F056F9F861FB6918462037BD4680BD4C
:1053700080B588B000AF786039603B68BB600923B6
:10538000FB60C0233B6100237B614FF48063BB6102
:1053900007F1080319467868FFF7A2FD786800F066
:1053A00037F9F861FB6918462037BD4680BD80B5E6
:1053B00088B000AF786039600023BB600323FB60D6
:1053C00040233B6100237B614FF48063BB6107F1A5
:1053D000080319467868FFF783FD3A680321786867
:1053E00000F09CF9F861FB6918462037BD4680BD86
:1053F00080B588B000AF786039603B68BB600D2332
:10540000FB6040233B6100237B614FF48063BB6101
:1054100007F1080319467868FFF762FD41F2883208
:105420000D21786800F006F8F861FB69184620370E
:10543000BD4680BD80B588B000AFF8600B467A608D
:10544000FB72704B1B68704AA2FB03235A0A7B68ED
:1054500002FB03F3FB61FB695A1EFA61002B02D1C8
:105460004FF00043C9E0FB685B6BBB61BB6903F0B5
:105470004503002BEFD0BB6903F40063002BEAD196
:10548000FB685B6B03F00403002B04D0FB68042271
:105490009A630423B1E0FB685B6B03F00103002B0C
:1054A00004D0FB6801229A630123A6E0FB68C522B1
:1054B0009A63F868FFF73EFD03461A46FB7A93426B
:1054C00001D0012399E00021F868FFF740FD7861E1
:1054D0007A694E4B1340002B01D100238DE07B698C
:1054E000002B02DA4FF0007387E07B6903F0804302
:1054F000002B01D0402380E07B6903F00053002B98
:1055000001D0802379E07B6903F08053002B02D027
:105510004FF4807371E07B6903F00063002B02D0CD
:105520004FF4007369E07B6903F08063002B02D0C5
:105530004FF4806361E07B6903F08073002B02D03D
:105540004FF4006359E07B6903F40003002B02D0A1
:105550004FF4805351E07B6903F48003002B02D0A9
:105560004FF4005349E07B6903F40013002B02D091
:105570004FF4804341E07B6903F48013002B02D099
:105580004FF4004339E07B6903F48023002B02D001
:105590004FF4003331E07B6903F40033002B02D079
:1055A0004FF4802329E07B6903F48033002B02D081
:1055B0004FF4002321E07B6903F40043002B02D069
:1055C0004FF4801319E07B6903F48043002B02D071
:1055D0004FF4001311E07B6903F40053002B02D059
:1055E0004FF4800309E07B6903F00803002B02D02D
:1055F0004FF4000301E04FF4803318462037BD46D6
:1056000080BD00BF00000020D34D621008E0FFFD08
:1056100080B485B000AF78601F4B1B681F4AA2FBA7
:1056200003235B0A41F2883202FB03F3FB60FB6851
:105630005A1EFA60002B02D14FF0004326E07B682F
:105640005B6BBB60BB6803F04503002BEFD0BB680E
:1056500003F40063002BEAD17B685B6B03F0040367
:10566000002B04D07B6804229A6304230EE07B683D
:105670005B6B03F00103002B04D07B6801229A636B
:10568000012303E07B68C5229A6300231846143780
:10569000BD465DF8047B704700000020D34D6210CA
:1056A00080B485B000AF78601A4B1B681A4AA2FB21
:1056B00003235B0A41F2883202FB03F3FB60FB68C1
:1056C0005A1EFA60002B02D14FF000431BE07B68AA
:1056D0005B6BBB60BB6803F04503002BEFD0BB687E
:1056E00003F40063002BEAD17B685B6B03F00403D7
:1056F000002B04D07B6804229A63042303E07B68B8
:10570000C5229A63002318461437BD465DF8047B12
:10571000704700BF00000020D34D621080B588B0F4
:1057200000AFF8600B467A60FB72354B1B68354A58
:10573000A2FB03235B0A41F2883202FB03F3FB6105
:10574000FB695A1EFA61002B02D14FF0004352E070
:10575000FB685B6BBB61BB6903F04503002BEFD0BB
:10576000BB6903F40063002BEAD1FB685B6B03F0B9
:105770000403002B04D0FB6804229A6304233AE05C
:10578000FB685B6B03F00103002B04D0FB68012274
:105790009A6301232FE0F868FFF7CCFB03461A4613
:1057A000FB7A934201D0012325E0FB68C5229A636E
:1057B0000021F868FFF7CBFB78617B6903F4604355
:1057C000002B06D17B691B0C9AB27B681A800023E0
:1057D00011E07B6903F48043002B02D04FF40053A7
:1057E00009E07B6903F40043002B02D04FF480539F
:1057F00001E04FF4803318462037BD4680BD00BF1E
:1058000000000020D34D621080B485B000AF7860F6
:10581000224B1B68224AA2FB03235B0A41F2883217
:1058200002FB03F3FB60FB685A1EFA60002B02D1F7
:105830004FF000432CE07B685B6BBB60BB6803F000
:105840004503002BEFD0BB6803F40063002BEAD1C3
:105850007B685B6B03F00403002B04D07B6804229D
:105860009A63042314E07B685B6B03F00103002B55
:1058700004D07B6801229A63012309E07B685B6B9B
:1058800003F04003002B02D07B6840229A63002380
:1058900018461437BD465DF8047B704700000020B1
:1058A000D34D621080B485B000AF7860114B1B6897
:1058B000114AA2FB03235B0A41F2883202FB03F385
:1058C000FB60FB685A1EFA60002B02D14FF00043C8
:1058D00009E07B685B6B03F08003002BF1D07B68F1
:1058E000C5229A63002318461437BD465DF8047B31
:1058F000704700BF00000020D34D621080B500AF9C
:105900000449054800F06EFA03461A46034B1A7024
:1059100000BF80BD3802002078A9000834020020B2
:1059200080B582B000AF0023FB7100F07BF8034626
:10593000012B01D0012312E00B48FDF723FF0346A2
:10594000FB71FB79002B09D14FF400610648FEF78B
:105950006BFB0346002B01D00123FB71FB7918463A
:105960000837BD4680BD00BFD800002080B586B096
:1059700000AFF860B9607A600023FB757B68BA6895
:10598000F9680648FDF7AEFF0346002B01D001235E
:10599000FB75FB7D18461837BD4680BDD80000203A
:1059A00080B586B000AFF860B9607A600023FB75FF
:1059B0007B68BA68F9680648FEF776F80346002B5C
:1059C00001D00123FB75FB7D18461837BD4680BD0D
:1059D000D800002080B500AF0548FEF7BFFB0346A6
:1059E000042B14BF01230023DBB2184680BD00BF87
:1059F000D800002080B582B000AF78607968034895
:105A0000FEF7E6FA00BF0837BD4680BDD80000208B
:105A100080B582B000AF786000F086F900BF08372B
:105A2000BD4680BD80B483B000AF0123FB71FB791C
:105A3000DBB218460C37BD465DF8047B704780B575
:105A400084B000AF786000F07DFAF86006E0FFF700
:105A5000C1FF0346002B01D1002309E000F072FAD8
:105A60000246FB68D31A7A689A42F0D84FF0FF33A7
:105A700018461037BD4680BD80B582B000AF0346E2
:105A8000FB710B4B01221A70FFF7A4FF0346002B9A
:105A900007D1074B1B78DBB223F00103DAB2044BCA
:105AA0001A70034B1B78DBB218460837BD4680BD21
:105AB0000D00002080B582B000AF0346FB711C4B87
:105AC00001221A7000F0F6F90346022B29D1FFF7E4
:105AD00027FF0346002B07D1FB791846FFF7CCFFC1
